:1000000009C019C018C017C016C015C014C013C04D
:1000100012C011C011241FBECFE9CDBF10E0A0E671
:10002000B0E0E2E7F2E002C005900D92A636B1071B
:10003000D9F796D01CC1E4CFBB9887E886B908955C
:1000400081E387B9369A349BFECF349A85B10895FF
:10005000E199FECF1CBA8EBB6DBBE29AE19A08957E
:10006000E199FECF8EBBE09A8DB30895B998C19AFD
:100070000895B89A82E48FBD91E093BF8FEF86BF59
:1000800093BF86BF089563E070E0E0D020E030E0E9
:100090002817390729F0C098C0982F5F3F4FF8CF35
:1000A0000895FF920F931F93CF93DF93EC018B0181
:1000B000F42E86B7840F86BFCE01E5DF86B78F1991
:1000C00086BFCE01E0DF86B78F0D86BFCE01DBDFB6
:1000D00086B78F0D86BFCE01D6DF86B78F0D86BF60
:1000E000CE01D1DF86B78F0D86BFCE01CCDF96B7AC
:1000F0008F2D6DEFA2D0980F96BF82E08FBDC80103
:10010000C2DF82E48FBDDF91CF911F910F91FF90ED
:100110000895FF920F931F93CF93DF93EC018B0110
:10012000F42EB1DF86B78F1986BFCE01ACDF86B75C
:100130008F1986BFCE01A7DF86B78F1986BF82E0F1
:100140008FBDC80123E0880F991F2A95E1F79BDF37
:1001500082E48FBDDF91CF911F910F91FF900895A1
:100160008FEF86BF86DF68DF81DFD12C01E010E0F2
:100170006FE1F62EC8E2D0E0EE24EA9460916100CF
:1001800070916200809163009091640023E02D15CE
:10019000E0F04091600085DF809160008F5F809388
:1001A00060008091630090916400079690936400D2
:1001B0008093630080916100909162000197909319
:1001C000620080936100D394D9CF660F771F660FCA
:1001D000771F40916000880F991F9BDF86B78131A0
:1001E00008F4E6BE80916000823014F4F092600062
:1001F00080916300909164008935924020F0D09303
:100200006400C093630080916100909162000A973E
:1002100020F4D0936200C093610080916000883028
:1002200014F0D12CABCF86B78832D8F71093640086
:1002300000936300F0926000F4CF002480FD060E6E
:10024000660F11F08695D1F7802D0895002455276B
:1002500004C0080E591F880F991F009729F0769542
:100260006795B8F37105B9F7802D952F0895F89427
:02027000FFCFBE
:0602720001F4016400002C
:00000001FF
