:1000000009C019C018C017C016C015C014C013C04D
:1000100012C011C011241FBECFE9CDBF10E0A0E671
:10002000B0E0E0EDF1E002C005900D92A436B1071A
:10003000D9F7B8D0CBC0E4CFB89A82E48FBD81E0C5
:1000400083BF8FEF86BF089520E030E0281739077F
:1000500049F0C098C098C098C098C098C0982F5FC9
:100060003F4FF4CF08950F931F93CF93DF93182F33
:10007000062FEA01681738F0101759F016BFCE01A5
:10008000E3DF1F5FF9CF16BFCE01DEDF115001178E
:10009000D0F3DF91CF911F910F910895DF92EF92EE
:1000A000FF920F931F93CF93DF93182FEB0184ECF4
:1000B000E82EE10ECB0163E070E077D0AC016E2D4D
:1000C000812FD1DF92E0F92EFFBC88EE93E0BCDFF8
:1000D00002E40FBD28EDD22ED10EAE016D2D8E2D76
:1000E000C2DFFFBC88EC90E0AFDF0FBD66EF610FB1
:1000F000AE018D2DB8DFFFBC80E991E0A5DF0FBD1B
:1001000064E1610FAE018CEE810FADDFCE0136E010
:10011000880F991F3A95E1F7DF91CF911F910F91C9
:10012000FF90EF90DF9090CF60916100709162003E
:1001300080916300B3DF82E08FBD80ED97E084DFC4
:1001400082E48FBD5091630060E5650F60936300AA
:1001500080916100909162009C012450310930939C
:100160006200209361004091600041504093600024
:10017000653B18F05E56509363002830310528F433
:100180004496909362008093610041110AC082E01E
:100190008FBD80E395E758DF82E48FBD8AE08093CE
:1001A0006000089549DFC0DFFECF0024552704C05A
:1001B000080E591F880F991F009729F076956795AB
:1001C000B8F37105B9F7802D952F0895F894FFCFF6
:0401D0000A100065AC
:00000001FF
