:1000000009C019C018C017C016C015C014C013C04D
:1000100012C011C011241FBECFE9CDBF10E0A0E671
:10002000B0E0E2EFF1E002C005900D92A636B10714
:10003000D9F760D0DCC0E4CFB89A82E48FBD81E00C
:1000400083BF8FEF86BF089563E070E0BFD020E0EC
:1000500030E02817390729F0C098C0982F5F3F4F2C
:10006000F8CF0895FF920F931F93CF93DF93EC0186
:100070008B01F42E86B7841B86BFCE01E5DF86B7E1
:100080008F1986BFCE01E0DF86B78F1986BFCE01FC
:10009000DBDF86B7FF0CF80EF6BE82E08FBDC8012D
:1000A000D3DF82E48FBDDF91CF911F910F91FF903D
:1000B00008950F931F93CF93DF931F92CDB7DD2742
:1000C0008B01880F991F4983BFDF86B78450498110
:1000D000841B86BF82E08FBDC801880F991F880FDF
:1000E000991FB2DF82E48FBD0F90DF91CF911F91F6
:1000F0000F910895A1DFB12CC1E0D0E008EC10E031
:1001000064E1E62EF12CDD24D394CC24CA946091D2
:10011000610070916200809163009091640023E01F
:100120002B15E0F0409160009DDF809160008F5FB3
:100130008093600080916300909164004496909356
:100140006400809363008091610090916200059744
:100150009093620080936100B394D9CF660F771FAC
:10016000660F771F40916000880F991FA2DF86B746
:10017000813108F4C6BE80916000813214F0D092C3
:1001800060008091630090916400893C910520F0AB
:10019000F0926400E09263008091610090916200AF
:1001A000449720F4109362000093610080916000F6
:1001B000883014F0B12CABCF86B78832D8F7D09303
:1001C0006400C093630010926000F4CF00245527B0
:1001D00004C0080E591F880F991F009729F07695C3
:1001E0006795B8F37105B9F7802D952F0895F894A8
:0201F000FFCF3F
:0601F20001F401650000AC
:00000001FF
