:1000000009C019C018C017C016C015C014C013C04D
:1000100012C011C011241FBECFE9CDBF10E0A0E671
:10002000B0E0E2E9F2E002C005900D92A239B1071A
:10003000D9F7ECD02CC1E4CFBB9887E886B90895F6
:1000400081E387B9369A349BFECF349A85B10895FF
:10005000B998C19A0895B89A82E48FBD91E093BF90
:100060008FEF86BF93BF86BF089563E070E0FED038
:1000700020E030E02817390729F0C098C0982F5F9A
:100080003F4FF8CF08950F931F93CF93DF93182F0F
:10009000062FEA0182E48FBD611738F0101759F07E
:1000A00016BFCE01E2DF1F5FF9CF16BFCE01DDDF45
:1000B00011500117D0F3DF91CF911F910F91089547
:1000C000EF92FF920F931F93CF93DF93E42E06B727
:1000D00010E0C62FD0E0F02EF81A1E1551F0AE0138
:1000E0006F2D802FD0DFAE01602F8F2DCCDF1F5FF3
:1000F000F4CFDF91CF911F910F91FF90EF90089572
:10010000AF92BF92CF92DF92EF92FF920F931F9325
:10011000CF93DF936B01C0E0D0E0082F10E00F57C2
:100120001F4F82E0A82E92E4B92EF801808190E062
:100130000C2E02C0959587950A94E2F7AFBC8370A8
:100140009927B60193D07C0190DFBFBCC7018DDF3A
:100150002296C830D10549F7DF91CF911F910F91B9
:10016000FF90EF90DF90CF90BF90AF900895A82FB1
:10017000B0E0E62FF0E0242F30E0841738F4EA0FE7
:10018000FB1FE217F3074CF4860F0895AE1BBF0B5D
:100190002A173B0714F4861B0895842F0895DF92D5
:1001A000EF92FF920F931F93CF93DF93D82E8B0183
:1001B0007A01CFEFD0E0FE01EF71FF27E05AFF4F49
:1001C0004D2D6C2F8081D3DF86BF8CE090E04DDF1A
:1001D0002197209781F70115110551F0F801EF7172
:1001E000FF27E05AFF4F808186BF01501109F3CFEE
:1001F00082E08FBDC70139DF82E48FBDDF91CF91EF
:100200001F910F91FF90EF90DF9008958FEF86BFC1
:1002100022DF12DF82E48FBDF12C22E4E22E32E0F5
:10022000D32EEFBCEF2DF0E0E05AFF4F48EE53E045
:1002300068E775E08081B3DFDFBC80E090E015DF28
:100240002FE0F21611F0F39401C0F12CCF2DD0E085
:10025000C05ADF4F088110E0F3DE9801280F311DEE
:10026000C9012981820F911D8883DBCF0024552786
:1002700004C0080E591F880F991F009729F0769522
:100280006795B8F37105B9F7802D952F0895F89407
:02029000FFCF9E
:10029200F0802197A39000E966466A0061D19A2214
:1002A200AEAC06540DDE4E6B8B77170443A3ADEA5A
:1002B200785BC7CDE797595555AAAAA5A55A5AFF03
:0202C200FA0040
:00000001FF
