:1000000009C019C018C017C016C015C014C013C04D
:1000100012C011C011241FBECFE9CDBF10E0A0E671
:10002000B0E0EEECF2E002C005900D92AA36B10706
:10003000D9F797D04AC1E4CFBB9887E886B908952D
:1000400081E387B9369A349BFECF349A85B10895FF
:10005000B998C19A0895B89A82E48FBD91E093BF90
:100060008FEF86BF93BF86BF089563E070E01CD119
:1000700020E030E02817390729F0C098C0982F5F9A
:100080003F4FF8CF0895FF920F931F93CF93DF93C5
:10009000EC018B01F42E86B7841B86BFCE01E5DF11
:1000A00086B78F1986BFCE01E0DF86B78F1986BF6E
:1000B000CE01DBDF86B7FF0CF80EF6BE82E08FBD07
:1000C000C801D3DF82E48FBDDF91CF911F910F91E3
:1000D000FF9008950F931F93CF93DF931F92CDB797
:1000E000DD278B01880F991F4983BFDF86B78450B6
:1000F0004981841B86BF82E08FBDC801880F991F8C
:10010000880F991FB2DF82E48FBD0F90DF91CF91EE
:100110001F910F910895EF92FF920F931F93CF932A
:10012000DF93F82EE62EEA018901681738F0FE14F5
:1001300059F0F6BECE0199DFF394F9CFF6BECE01A9
:1001400094DFFA94EF14D0F382E08FBDC8018DDF05
:1001500082E48FBDDF91CF911F910F91FF90EF90BF
:1001600008958FEF86BF77DF67DF72DFB12C52E033
:10017000E52E62E4F62EDD24D394CFEFD1E00FE13B
:1001800010E0CC24CA9484EF8B1508F470C0209141
:100190006500309166004091670050916800609161
:1001A000630080916400B7DF2091650030916600A4
:1001B00040916700509168006091610080916200F9
:1001C000AADF50916400555F509364004091630032
:1001D000445F4093630070916200735070936200BB
:1001E00060916100675060936100209167003091D9
:1001F00068002F5F3F4F3093680020936700809125
:100200006500909166000597909366008093650065
:10021000503F10F010926400E091640050E04E1BDB
:1002200051094430510514F0E09363007F3710F416
:10023000C092620070916200472F50E0461B510946
:100240004830510514F0709361002038310520F0DA
:1002500010936800009367008F37910520F4D093C6
:100260006600C093650080916000B80E8CCF8091CD
:100270006000813220F4880F8093600002C0D09229
:100280006000EFBC8091650090916600209167004E
:1002900030916800820F931F880F991F880F991F54
:1002A000E4DEFFBCB12C73CF0024552704C0080E38
:1002B000591F880F991F009729F076956795B8F315
:0E02C0007105B9F7802D952F0895F894FFCFA2
:0A02CE0020F8FF02011400040000F4
:00000001FF
