:1000000009C019C018C017C016C015C014C013C04D
:1000100012C011C011241FBECFE9CDBF10E0A0E671
:10002000B0E0EAE2F2E002C005900D92A636B10718
:10003000D9F77FD0F8C0E4CFBB9887E886B9089598
:1000400081E387B9369A349BFECF349A85B10895FF
:10005000E199FECF1CBA8EBB6DBBE29AE19A08957E
:10006000E199FECF8EBBE09A8DB30895B998C19AFD
:100070000895B89A82E48FBD91E093BF8FEF86BF59
:1000800093BF86BF089563E070E0BCD020E030E00D
:100090002817390729F0C098C0982F5F3F4FF8CF35
:1000A0000895FF920F931F93CF93DF93EC018B0181
:1000B000F42E86B7841B86BFCE01E5DF86B78F1985
:1000C00086BFCE01E0DF86B78F1986BFCE01DBDFAA
:1000D00086B7FF0CF80EF6BE82E08FBDC801D3DFF5
:1000E00082E48FBDDF91CF911F910F91FF90089512
:1000F0000F931F93CF93DF931F92CDB7DD278B0113
:10010000880F991F4983BFDF86B784504981841BBC
:1001100086BF82E08FBDC801880F991F880F991F85
:10012000B2DF82E48FBD0F90DF91CF911F910F91CD
:1001300008958FEF86BF9DDF7FDF98DFB12CC1E090
:10014000D0E000EB14E044E1E42EF12CDD24D39464
:10015000CC24CA9460916100709162008091630028
:100160009091640023E0409160002B15D0F099DF5E
:10017000809160008F5F8093600080916300909118
:10018000640088969093640080936300809161007E
:100190009091620044979093620080936100B394C1
:1001A000D9CFA6DF86B7813108F4C6BE8091600042
:1001B000813214F0D09260008091630090916400CD
:1001C0008132934020F0F0926400E09263008091CD
:1001D000610090916200883C910520F410936200C8
:1001E0000093610080916000883014F0B12CB2CF90
:1001F00086B78832D8F7D0936400C093630010921A
:100200006000F4CF0024552704C0080E591F880F42
:10021000991F009729F076956795B8F37105B9F79E
:0A022000802D952F0895F894FFCF6C
:06022A0001F40164000074
:00000001FF
