:1000000009C019C018C017C016C015C014C013C04D
:1000100012C011C011241FBECFE9CDBF10E0A0E671
:10002000B0E0E0E2F2E002C005900D92A238B10724
:10003000D9F766D0F3C0E4CFBB9887E886B90895B6
:1000400081E387B9369A349BFECF349A85B10895FF
:10005000B998C19A0895B89A82E48FBD91E093BF90
:100060008FEF86BF93BF86BF089563E070E09ED098
:1000700020E030E02817390729F0C098C0982F5F9A
:100080003F4FF8CF0895A82FB0E0E62FF0E0242FDF
:1000900030E0841738F4EA0FFB1FE217F3074CF443
:1000A000860F0895AE1BBF0B2A173B0714F4861B5F
:1000B0000895842F0895FF920F931F93CF93DF939A
:1000C000F82E8A01CFEFD0E0FE01EF71FF27E05A52
:1000D000FF4F4F2D6C2F8081D6DF86BF82E090E0EE
:1000E000C4DF2197209781F782E08FBDC801BDDF73
:1000F00082E48FBDDF91CF911F910F91FF90089502
:100100008FEF86BFA8DF98DF82E48FBDB12C712C02
:1001100096E0A92E08EC10EAD12C22E1422E512CB7
:1001200032E0932E42E4842E8A2D90E00796B201AD
:100130004ED0A82E91E09B0D7A1420F473949F71F9
:10014000B92E13C0B92EB81A9FBC8FE7F82EC12F55
:10015000D0E0CE018ADFFA94E1F78FBC113218F0BB
:100160001151712C02C0712C10E5C02FD0E0EB2D85
:10017000F0E0E05AFF4FAE0160E070E080819BDF6D
:10018000045D80E2D81611F0D39401C0D12CCD2D9E
:10019000D0E0C05ADF4FE880F12C52DF9701280FE2
:1001A000311D8981280F311D2883BECF002455279A
:1001B00004C0080E591F880F991F009729F07695E3
:1001C0006795B8F37105B9F7802D952F089597FBC2
:1001D000072E16F4009406D077FD08D00BD007FC4C
:1001E00005D03EF4909581959F4F08957095619547
:1001F0007F4F0895AA1BBB1B51E107C0AA1FBB1F5D
:10020000A617B70710F0A61BB70B881F991F5A95A2
:10021000A9F780959095BC01CD010895F894FFCF82
:10022000F0802197A39000E966466A0061D19A2286
:10023000AEAC06540DDE4E6B8B77170443A3ADEACC
:020240000500B7
:00000001FF
