:1000000009C019C018C017C016C015C014C013C04D
:1000100012C011C011241FBECFE9CDBF10E0A0E671
:10002000B0E0E4EFF1E002C005900D92AA36B1070E
:10003000D9F739D0DDC0E4CFB89A82E48FBD81E032
:1000400083BF8FEF86BF089563E070E0C0D020E0EB
:1000500030E02817390729F0C098C0982F5F3F4F2C
:10006000F8CF0895EF92FF920F931F93CF93DF93F2
:10007000F82EE62EEA018901681738F0FE1459F0CF
:10008000F6BECE01E1DFF394F9CFF6BECE01DCDFA0
:10009000FA94EF14D0F3C801DF91CF911F910F9123
:1000A000FF90EF90D1CF8FEF86BFC6DFB12C82E0FB
:1000B000E82E92E4F92EDD24D394C4E1D0E001E0EF
:1000C00010E0CC24CA9484EF8B1508F46FC0209103
:1000D0006500309166004091670050916800609122
:1000E000630080916400BEDF20916500309166005E
:1000F00040916700509168006091610080916200BA
:10010000B1DF509164005F5F5093640040916300E1
:100110004E5F409363007091620073507093620071
:100120006091610067506093610020916700309199
:1001300068002F5F3F4F30936800209367008091E5
:100140006500909166000297909366008093650029
:10015000503F10F010926400E091640050E04E1B9C
:1001600051094031510514F0E09363007F3710F4DA
:10017000C092620070916200472F50E0461B510907
:100180004032510514F0709361002531310520F0A3
:100190001093680000936700029720F4D0936600E4
:1001A000C093650080916000B80E8DCF8091600093
:1001B000813220F4880F8093600002C0D0926000EA
:1001C000EFBC88EC90E040DFFFBCB12C80CF002476
:1001D000552704C0080E591F880F991F009729F052
:1001E00076956795B8F37105B9F7802D952F089529
:0401F000F894FFCFB1
:0A01F40020F8FF02011400040000CF
:00000001FF
