:100000000EC028C027C026C025C024C023C022C0DF
:1000100021C020C01FC01EC01DC01CC01BC0112499
:100020001FBECFE5D2E0DEBFCDBF10E0A0E6B0E05E
:10003000E0ECF3E002C005900D92A636B107D9F7C7
:1000400010E0A6E6B0E001C01D92A636B107E1F7C8
:10005000BFD0B4C1D5CFB89A82E48ABD81E083BF56
:100060008FEF89BD089563E070E096D120E030E025
:1000700004C0C098C0982F5F3F4F28173907C9F7B1
:100080000895FF920F931F93CF93DF93EC018B01A1
:10009000F42E89B5841B89BDCE01E5DF89B58F19A2
:1000A00089BDCE01E0DF89B58F1989BDCE01DBDFC7
:1000B00089B5FF0CF80EF9BC82E08ABDC801D3DF18
:1000C00082E48ABDDF91CF911F910F91FF90089537
:1000D0000F931F93CF93DF930F92CDB7DEB78B01B2
:1000E000880F991F4983BFDF89B584504981841BDC
:1000F00089BD82E08ABDC801880F991F880F991FAA
:10010000B2DF82E48ABD0F90DF91CF911F910F91F2
:100110000895FF920F931F93CF93DF93EC018B0110
:10012000F42E89B5840F89BDCE019DDF89B58F1965
:1001300089BDCE0198DF89B58F0D89BDCE0193DFD2
:1001400089B58F0D89BDCE018EDF89B58F0D89BD33
:10015000CE0189DF89B58F0D89BDCE0184DF99B5C8
:100160008F2D6DEF10D1980F99BD82E08ABDC80127
:100170007ADF82E48ABDDF91CF911F910F91FF90CA
:100180000895FF920F931F93CF93DF93EC018B01A0
:10019000F42E69DF89B58F1989BDCE0164DF89B579
:1001A0008F1989BDCE015FDF89B58F1989BD82E0C6
:1001B0008ABDC80143E0880F991F4A95E1F753DFD4
:1001C00082E48ABDDF91CF911F910F91FF90089536
:1001D00042DFC4E060916100709162008091630031
:1001E00090916400409160004CDF409160004F5F4F
:1001F00040936000809163009091640044969093D6
:1002000064008093630060916100709162006550AA
:1002100070407093620060936100C150D9F6660F20
:10022000771F660F771F880F991F52DF89B58131BD
:1002300010F48FEF89BD8091600081321CF081E065
:10024000809360008091630090916400893C9105E7
:1002500030F084E190E0909364008093630080919B
:100260006100909162008431910530F488EC90E057
:1002700090936200809361008091600088305CF40C
:1002800089B5883240F481E090E0909364008093D7
:1002900063001092600082E08ABD80E197E2E3DEB5
:1002A00080E197E2E0DE80E197E2DDDE80E197E247
:1002B000DADE80E197E2D7DE82E48ABDFF24FA9499
:1002C000DFE108E210E0F1E0CF2ED12C5AC06091BE
:1002D0006100709162008091630090916400409190
:1002E000600017DF409160004F5F40936000809195
:1002F000630090916400079690936400809363007C
:100300006091610070916200615070407093620072
:1003100060936100C150D9F6660F771F660F771F93
:10032000880F991F2EDF89B5813108F4F9BC8091BF
:100330006000823014F4D09360008091630090914B
:10034000640022E08935920720F010936400009346
:10035000630080916100909162008A30910520F4E1
:1003600010936200009361008091600088304CF42B
:1003700089B5883230F4D0926400C0926300D09383
:100380006000C4E0A4CF002480FD060E660F11F0CB
:100390008695D1F7802D08955527002480FF02C04F
:1003A000060E571F660F771F6115710521F0969590
:1003B0008795009799F7952F802D0895F894FFCF92
:0603C00001F401650000DC
:00000001FF
